:020000040800F2
:1000000000000120C5300008F92F0008FB2F000870
:10001000FD2F0008FF2F000801300008000000003D
:100020000000000000000000000000000330000895
:100030000530000800000000073000080930000803
:100040001531000815310008153100081531000878
:100050001531000815310008153100081531000868
:100060001531000815310008153100081531000858
:100070001531000815310008153100081531000848
:10008000113000081531000815310008000000008B
:100090000000000000000000000000001531000812
:1000A0001531000815310008153100081531000818
:1000B00021300008313000081531000815310008E2
:1000C00015310008153100081531000815310008F8
:1000D0001531000815310008153100080000000036
:1000E0001531000815310008153100080000000026
:1000F00000000000000000000000000015310008B2
:100100000000000015310008153100081531000805
:1001100000000000000000000000000000000000DF
:1001200015310008153100084D3000081531000860
:100130001531000800000000000000000000000071
:100140000000000000000000000000001531000861
:100150001531000815310008153100085D30000820
:1001600015310008153100080000000000000000F3
:10017000000000000000000000000000000000007F
:100180000000000015310008000000000000000021
:04019000153100081D
:1001A00010B5054C237833B9044B13B10448AFF3B1
:1001B00000800123237010BD7000002000000000AB
:1001C0008839000808B5034B1BB103490348AFF356
:1001D000008008BD0000000074000020883900087D
:1001E00053B94AB9002908BF00281CBF4FF0FF319E
:1001F0004FF0FF3000F072B9ADF1080C6DE904CE9C
:1002000000F006F8DDF804E0DDE9022304B07047F1
:100210002DE9F047089E04468846002B4BD18A42C0
:10022000154667D9B2FA82F24AB1C2F1200701FA43
:1002300002F320FA07F7954047EA030894404FEA93
:10024000154E230CB8FBFEF71FFA85FC0EFB178832
:1002500043EA084307FB0CF1994209D9EB1807F16F
:10026000FF3080F01B81994240F21881023F2B44FD
:100270005B1AA4B2B3FBFEF00EFB103344EA034456
:1002800000FB0CFCA44509D92C1900F1FF3380F0C8
:100290000781A44540F2048102382C4440EA07401B
:1002A000A4EB0C0400271EB1D4400023C6E9004390
:1002B0003946BDE8F0878B4209D9002E00F0EB806B
:1002C0000027C6E9000138463946BDE8F087B3FA91
:1002D00083F7002F47D18B4202D3824200F2FA808B
:1002E000841A61EB030301209846002EE0D0C6E992
:1002F0000048DDE702B9FFDEB2FA82F2002A40F0E0
:100300008F80491B4FEA154E1FFA85F80127B1FB74
:10031000FEFC230C0EFB1C1143EA014308FB0CF10D
:10032000994207D9EB180CF1FF3002D2994200F242
:10033000CD808446591AA3B2B1FBFEF00EFB101417
:1003400043EA044408FB00F8A04507D92C1900F142
:10035000FF3302D2A04500F2B6801846A4EB080491
:1003600040EA0C409FE7C7F1200CBB4022FA0CFE8C
:100370004EEA030E01FA07F420FA0CF521FA0CF309
:100380004FEA1E482543B3FBF8F92C0C08FB193340
:100390001FFA8EFA44EA034309FB0AF49C4202FA6C
:1003A00007F200FA07F10BD91EEB030309F1FF3046
:1003B00080F087809C4240F28480A9F10209734456
:1003C0001B1BADB2B3FBF8F008FB103345EA034446
:1003D00000FB0AFAA24508D91EEB040400F1FF3322
:1003E0006BD2A24569D90238744440EA0940A0FBA7
:1003F0000289A4EB0A044C45C2464B4654D351D063
:10040000002E69D0B1EB0A0564EB030404FA0CFC7E
:10041000FD40FC404CEA0505C6E90054002747E7CB
:10042000C2F1200320FA03F7954001FA02F021FA05
:1004300003F34FEA154E3843010CB3FBFEF71FFAE6
:1004400085F80EFB173341EA034107FB08F38B42A3
:1004500004FA02F407D9691807F1FF3C2FD28B4246
:100460002DD9023F2944CB1A81B2B3FBFEF00EFB1B
:10047000103341EA034100FB08F38B4207D96918A6
:1004800000F1FF3C17D28B4215D902382944C91A12
:1004900040EA07473BE73746304609E70746E7E6C5
:1004A0001846FBE64145ABD2B8EB020A69EB0E02F7
:1004B00001381346A4E76046E9E7184695E7674622
:1004C000D1E781467CE702382C4447E7ACF1020CC7
:1004D0002B442FE7384608E73746E9E6704700BF68
:1004E000034613F8012B002AFBD1181A0138704774
:1004F00001F0FF01102A2BDB10F0070F08D010F8D5
:10050000013B013A8B422DD010F0070F42B3F6D1D8
:10051000F0B441EA012141EA014122F007047FF0F1
:1005200000070023F0E80256083C85EA010586EA48
:10053000010685FA47F5A3FA87F586FA47F6A5FA84
:1005400087F68EB9EED1F0BC01F0FF0102F0070290
:1005500032B110F8013B013A83EA010313B1F8D13B
:100560000020704701387047002D06BF354603381C
:10057000073815F0010F07D1013015F4807F02BF55
:10058000013015F4C03F0130F0BC0138704700BFA6
:1005900010B504460E4B18784FF47A73B3FBF0F3A2
:1005A0000C4A1068B0FBF3F000F0AAF868B90F2C01
:1005B00001D901200AE0002221464FF0FF3000F06F
:1005C0005DF8034B5C60002000E0012010BD00BF1F
:1005D000000000200800002008B50B4B1A6842F408
:1005E00000721A601A6842F480621A601A6842F453
:1005F00080721A60032000F02FF80020FFF7C8FF78
:1006000002F064FB002008BD003C0240034A116870
:10061000034B1B780B441360704700BF9C00002005
:1006200000000020014B1868704700BF9C000020AC
:1006300038B50446FFF7F6FF0546B4F1FF3F02D098
:10064000044B1B781C44FFF7EDFF401BA042FAD37C
:1006500038BD00BF00000020074AD36823F4E063E0
:100660001B041B0C000200F4E060184340F0BF6064
:1006700040F40030D060704700ED00E030B4174B1C
:10068000DB68C3F30223C3F10704042C28BF04244E
:100690001D1D062D18D9033B4FF0FF3505FA04F454
:1006A00021EA0401994005FA03F322EA03031943FE
:1006B00000280BDB0901C9B200F1604000F5614080
:1006C00080F8001330BC70470023E5E700F00F000E
:1006D0000901C9B2024B1954F4E700BF00ED00E074
:1006E00014ED00E0002807DB00F01F0240090123A1
:1006F0009340024A42F82030704700BF00E100E01A
:100700000138B0F1807F0AD2064B5860064AF021CA
:1007100082F823100020986007221A607047012099
:10072000704700BF10E000E000ED00E030B4056865
:100730002C6824F480242C60046863608368402B58
:1007400005D0036899600368DA6030BC70470368BD
:100750009A600368D960F8E70268D3B2103B0B498E
:10076000A1FB03131B090A49C95CC165032B06D809
:1007700022F47F7222F003028265806D704722F4BA
:100780007F7222F0030204328265F6E7ABAAAAAABE
:10079000A0390008836A826992B9012B0AD01BB183
:1007A000022B01D000207047C36A13F0807F2CD148
:1007B00000207047C36AB3F1C07F28D00020704783
:1007C000B2F5005F05D0022B29D9032B15D00020EC
:1007D0007047032B03D8DFE803F01C041C0A002039
:1007E0007047C36A13F0807F15D100207047C36A39
:1007F000B3F1C07F11D000207047C36A13F0807F2F
:1008000001D001207047002070470120704701206F
:100810007047012070470120704701207047012078
:100820007047000070B50446FFF7FCFE002C5BD05B
:100830000546002384F83430022384F835302268DA
:10084000136823F00103136023681A6812F0010F84
:100850000AD0FFF7E7FE401B0528F5D92023636582
:10086000032084F8350070BD1A6820481040616884
:10087000A2680A43E1680A4321690A4361690A439D
:10088000A1690A43E1690A43216A0A430243616A92
:1008900004291ED01A602668756925F00705636A69
:1008A0001D43042B07D1A36A1D43E36A1BB12046F5
:1008B000FFF770FF90B975612046FFF74DFFE26DBD
:1008C0003F239340836000206065012384F8353026
:1008D000C9E7E16A206B01430A43DBE74023636514
:1008E000012084F83500BEE70120BCE73F8010F00E
:1008F00038B5856D90F83440012C2CD0012480F857
:10090000344090F83540E4B2012C04D0002380F844
:100910003430022038BD0446022084F8350000201F
:1009200060652046FFF702FFE26D3F239340AB6016
:100930002268136843F016031360236C23B1226806
:10094000136843F0080313602268136843F001033F
:1009500013600020DEE70220DCE790F83530DBB2E0
:10096000022B03D08023436501207047052380F8C4
:1009700035300268136823F00103136000207047CC
:10098000F0B583B0044600230193724B1D68724B8F
:10099000A3FB0535AD0A876D3E68C26D0823934001
:1009A000334210D003681A6812F0040F0BD01A6893
:1009B00022F004021A60C26D08239340BB60436DAD
:1009C00043F001034365E26D01239340334209D0B4
:1009D0002268526912F0800F04D0BB60636D43F04F
:1009E00002036365E26D04239340334209D0226819
:1009F000126812F0020F04D0BB60636D43F0040371
:100A00006365E26D10239340334224D0226812685C
:100A100012F0080F1FD0BB6023681A6812F4802FF1
:100A20000DD01B6813F4002F04D1236C9BB120461A
:100A3000984710E0A36C73B1204698470BE01A6802
:100A400012F4807F03D11A6822F008021A60236C26
:100A50000BB120469847E26D20239340334255D096
:100A60002268126812F0100F50D0BB6094F8353035
:100A7000DBB2052B0ED023681A6812F4802F33D016
:100A80001B6813F4002F2AD1636C002B3ED0204644
:100A900098473BE02268136823F01603136022682E
:100AA000536923F080035361236CA3B12268136858
:100AB00023F008031360E26D3F239340BB600023E3
:100AC00084F83430012384F83530236D002B3FD077
:100AD000204698473CE0A36C002BE7D1EBE7E36BA3
:100AE000A3B12046984711E01A6812F4807F09D11B
:100AF0001A6822F010021A60002384F834300123AF
:100B000084F83530E36B0BB120469847636DFBB139
:100B1000636D13F0010F17D0052384F83530226878
:100B2000136823F001031360019B01330193AB426F
:100B300004D823681B6813F0010FF5D1002384F853
:100B40003430012384F83530E36C0BB120469847EC
:100B500003B0F0BD08000020B5814E1B00230F2B11
:100B600000F2C580F0B583B039E0042200E0002235
:100B7000AA403A4302345E4D45F824205D4A146889
:100B8000F24302EA04054F6817F4803F01D046EAB9
:100B90000405584C2560646802EA04054F6817F4A0
:100BA000003F01D046EA0405524C6560A46802EAA1
:100BB00004054F6817F4801F01D046EA04054D4C28
:100BC000A560E46822404D6815F4001F01D046EA94
:100BD0000402484CE26001330F2B00F286800122B0
:100BE0009A400C6804EA0206B242F4D14C68651ED1
:100BF000012D03D9112C01D0122C12D185685F0070
:100C00000324BC4025EA0405CC68BC402C43846026
:100C1000456825EA02054C68C4F300129A402A434D
:100C20004260C4685F000322BA40D24314408D681A
:100C3000BD402543C5604C68022C01D0122C13D155
:100C4000DD08083550F825E003F007044FEA840C6E
:100C50000F2404FA0CF42EEA040E0C6904FA0CF4C6
:100C600044EA0E0440F82540046822404C6804F031
:100C70000304BC40224302604A6812F0805FAAD09D
:100C8000002201921C4A546C44F480445464526C17
:100C900002F480420192019A9C08A51C144A52F861
:100CA000257003F0030295000F22AA4027EA0207ED
:100CB000124A90423FF45BAF02F5806290420ED040
:100CC00002F5806290420CD002F5806290420AD018
:100CD00002F5806290423FF448AF072248E70122C4
:100CE00046E7022244E7032242E703B0F0BD704723
:100CF00000380140003C0140003802400000024042
:100D000012B909048161704781617047436931EA12
:100D1000030301D0816170470904816170470000BD
:100D2000002800F0E48170B582B00446036813F037
:100D3000010F3BD0A74B9B6803F00C03042B2CD076
:100D4000A44B9B6803F00C03082B21D06368B3F518
:100D5000803F4FD0B3F5A02F52D09E4B1A6822F49B
:100D600080321A601A6822F480221A606368002BAD
:100D700050D0FFF757FC0546964B1B6813F4003F15
:100D800014D1FFF74FFC401B6428F5D90320B3E1D1
:100D9000904B5B6813F4800FD8D08E4B1B6813F414
:100DA000003F03D06368002B00F0A381236813F099
:100DB000020F55D0874B9B6813F00C0F3ED0854B2C
:100DC0009B6803F00C03082B33D0E368002B68D03A
:100DD000814B01221A60FFF725FC05467D4B1B68FD
:100DE00013F0020F54D1FFF71DFC401B0228F5D968
:100DF000032081E1774A136843F480331360B5E739
:100E0000744B1A6842F480221A601A6842F48032E5
:100E10001A60ABE7FFF706FC05466E4B1B6813F440
:100E2000003FC3D0FFF7FEFB401B6428F5D9032029
:100E300062E1684B5B6813F4800FC6D1654B1B6899
:100E400013F0020F04D0E368012B01D0012053E11D
:100E5000604A136823F0F803216943EAC103136071
:100E6000236813F0080F40D0636963B35B4B012222
:100E70001A60FFF7D7FB0546564B5B6F13F0020F66
:100E800033D1FFF7CFFB401B0228F5D9032033E114
:100E9000504A136823F0F803216943EAC103136041
:100EA000DEE74D4B00221A60FFF7BCFB0546494BBD
:100EB0001B6813F0020FD3D0FFF7B4FB401B0228CE
:100EC000F5D9032018E1454B00221A60FFF7AAFB71
:100ED0000546404B5B6F13F0020F06D0FFF7A2FBF5
:100EE000401B0228F5D9032006E1236813F0040F04
:100EF00079D0384B1B6C13F0805F33D10023019302
:100F0000344B1A6C42F080521A641B6C03F080530D
:100F10000193019B0125324B1B6813F4807F23D082
:100F2000A368012B34D0052B38D02A4B1A6F22F03E
:100F300001021A671A6F22F004021A67A368002BD5
:100F400036D0FFF76FFB0646224B1B6F13F0020FE4
:100F500048D1FFF767FB801B41F288339842F3D9F1
:100F60000320C9E00025D6E71D4A136843F48073C7
:100F70001360FFF757FB0646194B1B6813F4807F7D
:100F8000CED1FFF74FFB801B0228F5D90320B3E039
:100F9000104A136F43F001031367CFE70D4B1A6F2D
:100FA00042F004021A671A6F42F001021A67C5E79D
:100FB000FFF738FB0646074B1B6F13F0020F11D0EB
:100FC000FFF730FB801B41F288339842F3D90320AE
:100FD00092E000BF0038024000004742800E4742C6
:100FE00000700040EDB9A369002B00F08480454AF1
:100FF000926802F00C02082A51D0022B17D0424B03
:1010000000221A60FFF70EFB04463E4B1B6813F0EC
:10101000007F42D0FFF706FB001B0228F5D9032012
:101020006AE0384A136C23F080531364DBE7364BD5
:1010300000221A60FFF7F6FA0546324B1B6813F0E0
:10104000007F06D0FFF7EEFA401B0228F5D90320F7
:1010500052E0E369226A1343626A43EA8213A26A96
:101060005208013A43EA0243E26A43EA0263254A2C
:101070005360254B01221A60FFF7D4FA0446214B36
:101080001B6813F0007F06D1FFF7CCFA001B022883
:10109000F5D9032030E000202EE000202CE0012BC9
:1010A0002CD0184B5B6803F48001E269914201D0B7
:1010B000012021E003F03F02216A8A4201D0012091
:1010C0001AE0616A47F6C0721A408A4201D00120D4
:1010D00012E003F44032A16A8A4201D001200BE001
:1010E00003F07063E26A93420AD0012004E0012019
:1010F0007047012000E0002002B070BD0120FBE736
:101100000020F9E70038024060004742264B9B6808
:1011100003F00C03042B44D0082B01D02348704764
:101120002DE9F04B204B5A6802F03F025B6813F444
:10113000800F13D01C4B5968C1F3881100231C4841
:10114000A1FB0001FFF74CF8174B5B68C3F30143A9
:1011500001335B00B0FBF3F0BDE8F08B124B5B6832
:10116000C3F388131E4600275C010025E41A65EBD3
:101170000705A90141EA9461A001001B61EB05018B
:10118000CB0043EA5073C400A01943EB07018B0264
:1011900043EA90538402204619460023FFF720F8C3
:1011A000D2E70348704700BF003802400024F40033
:1011B00040787D01002800F09E8070B50446504BB9
:1011C0001B6803F00F038B4209D2CBB24C4A137059
:1011D000136803F00F038B4201D0012070BD236818
:1011E00013F0020F17D013F0040F04D0454A936890
:1011F00043F4E0539360236813F0080F04D0414A8E
:10120000936843F4604393603E4A936823F0F0038D
:10121000A068034393600D46236813F0010F32D09A
:101220006368012B21D09A1E012A25D9354A1268FC
:1012300012F0020F61D033498A6822F0030213438F
:101240008B60FFF7EFF906462E4B9B6803F00C030B
:101250006268B3EB820F16D0FFF7E4F9801B41F20E
:1012600088339842F0D90320B8E7264A126812F46E
:10127000003FE0D10120B1E7224A126812F0007F5E
:10128000D9D10120AAE71E4B1B6803F00F03AB4224
:1012900009D9EAB21A4B1A701B6803F00F03AB426C
:1012A00001D001209AE7236813F0040F06D0154AF5
:1012B000936823F4E053E1680B439360236813F0D1
:1012C000080F07D00F4A936823F46043216943EA6B
:1012D000C1039360FFF71AFF0A4B9B68C3F3031324
:1012E000094AD35CD840094B1860094B1868FFF7CE
:1012F0004FF9002072E70120704701206EE700BF20
:10130000003C024000380240A839000808000020D4
:1013100004000020014B1868704700BF080000203F
:1013200008B5FFF7F7FF044B9B68C3F38223034A1A
:10133000D35CD84008BD00BF00380240B83900086F
:1013400008B5FFF7E7FF044B9B68C3F34233034A3A
:10135000D35CD84008BD00BF00380240B83900084F
:10136000F8B505460F4616461C462B689B6837EABB
:1013700003030CBF01230023B34237D0B4F1FF3F76
:10138000F3D0FFF74FF9069BC01AA04201D2002C00
:10139000EBD12A68536823F0E00353606B68B3F520
:1013A000827F0BD0AB6AB3F5005F14D0012385F8C0
:1013B0005130002385F85030032018E0AB68B3F5B6
:1013C000004F02D0B3F5806FECD12A68136823F088
:1013D00040031360E6E72A68136823F400531360A0
:1013E0002A68136843F400531360DFE70020F8BD58
:1013F00030B585B0164C2468164DA5FB0434640D39
:101400004FF47A7505FB04F403944468B4F5827FC5
:101410000BD0039BC3B1039B013B039303689B6801
:1014200013F0800FF5D100230FE00B460446009225
:1014300000228021FFF794FF034630B1636D43F033
:1014400020036365032300E00023184605B030BD88
:1014500008000020819F5E1600283BD010B504468E
:101460000023836290F85130002B2ED0022384F8A1
:1014700051302268136823F0400313606368A26848
:101480001343E26813432269134362691343A26959
:1014900002F400721343E2691343226A1343A16A00
:1014A00022680B431360638B03F00403616A2268B4
:1014B0000B4353602268D36923F40063D361002097
:1014C0006065012384F8513010BD80F8503001F080
:1014D00019FCCBE7012070472DE9F04182B090F86C
:1014E0005040012C00F0C3801D4617468846044634
:1014F000012380F85030FFF795F8064694F85130F4
:10150000DBB2012B09D00220012384F851300023E3
:1015100084F8503002B0BDE8F081B8F1000F00F05F
:101520009880002F00F09780032384F85130002327
:101530006365C4F83080A786E786A363A387E38743
:1015400063642364A368B3F5004F1CD023681A6852
:1015500012F0400F03D11A6842F040021A60E368AB
:10156000B3F5006F15D063680BB1012F49D1226B21
:10157000236812781A73236B01332363E38E013BD4
:101580009BB2E3863DE02268136843F48043136016
:10159000DCE763680BB1012F15D1226B2368128839
:1015A000DA60236B02332363E38E013B9BB2E38655
:1015B00009E0FFF737F8801BA84202D3B5F1FF3FDF
:1015C0004BD1002D4BD0E38E9BB2002B2CD0236847
:1015D0009A6812F0020FECD0226B1288DA60236B4B
:1015E00002332363E38E013B9BB2E386EBE7FFF715
:1015F00019F8801BA84202D3B5F1FF3F31D1002D6D
:1016000031D0E38E9BB27BB123689A6812F0020F4F
:10161000EDD0226B12781A73236B01332363E38EB0
:10162000013B9BB2E386ECE7324629462046FFF7B2
:10163000DFFE08B120236365A36833B901932368F3
:10164000DA6801929B680193019B636D6BB900207E
:101650005AE7012058E7012056E7032054E703200A
:1016600052E7032050E703204EE701204CE7022019
:1016700050E7000070B4036A23F001030362036AB9
:101680004268846924F073040D6845EA040623F077
:1016900002048B6823430D4DA84209D00B4DA8428C
:1016A0000DD0426086614A684263036270BC704735
:1016B00023F00803CC68234323F00403EEE722F46D
:1016C00040724C6914438A692243EAE700000140F2
:1016D00030B4036A23F480730362036A4268C46906
:1016E00024F073040D682C4323F400738D6843EADF
:1016F00005230F4DA84209D00D4DA8420ED04260DF
:10170000C4614A68C263036230BC704723F400635B
:10171000CD6843EA052323F48063EDE722F44052C9
:101720004D6942EA05128D6942EA0512E7E700BFFA
:101730000000014030B4036A23F480530362036A5B
:101740004468C26922F4E6420D6842EA052223F4A5
:1017500000538D6843EA0533074DA84206D0446024
:10176000C2614A680264036230BC704724F480445A
:101770004D6944EA8514F2E70000014010B4036AA1
:10178000046A24F001040462846924F0F00444EA49
:10179000021223F00A030B43826103625DF8044BDB
:1017A000704710B4036A23F0100303628469036A6C
:1017B00024F4704444EA023223F0A00343EA011304
:1017C000826103625DF8044B7047836823F0700305
:1017D000194341F0070181607047022380F83D30D2
:1017E0000268936803F00703062B03D0136843F0E5
:1017F00001031360012380F83D3000207047026828
:10180000D36843F00103D3600268936803F00703D1
:10181000062B03D0136843F00103136000207047C8
:1018200070477047704770477047704710B504465F
:1018300003681A6912F0020F11D0DA6812F0020F71
:101840000DD06FF002021A610123037703689B69D0
:1018500013F0030F70D0FFF7E6FF00232377236810
:101860001A6912F0040F12D0DA6812F0040F0ED0C9
:101870006FF004021A610223237723689B6913F433
:10188000407F5FD02046FFF7CEFF002323772368F9
:101890001A6912F0080F12D0DA6812F0080F0ED091
:1018A0006FF008021A61042323772368DB6913F0C1
:1018B000030F4ED02046FFF7B6FF0023237723689F
:1018C0001A6912F0100F12D0DA6812F0100F0ED051
:1018D0006FF010021A61082323772368DB6913F481
:1018E000407F3DD02046FFF79EFF002323772368EB
:1018F0001A6912F0010F03D0DA6812F0010F36D125
:1019000023681A6912F0800F03D0DA6812F0800F92
:1019100034D123681A6912F0400F03D0DA6812F04C
:10192000400F32D123681A6912F0200F03D0DA6811
:1019300012F0200F30D110BDFFF774FF2046FFF7E3
:1019400073FF8AE72046FFF76DFF2046FFF76CFF25
:101950009BE72046FFF766FF2046FFF765FFACE7F1
:101960002046FFF75FFF2046FFF75EFFBDE76FF001
:1019700001021A612046FFF754FFC1E76FF08002B1
:101980001A61204600F015FAC3E76FF040021A61B1
:101990002046FFF74AFFC5E76FF020021A61204694
:1019A00000F006FAC7E700000368254A90420ED00F
:1019B000B0F1804F0BD0A2F57C42904207D002F5E7
:1019C0008062904203D002F58062904203D123F0FE
:1019D00070034A6813431A4A90421AD0B0F1804FFC
:1019E00017D0A2F57C42904213D002F5806290425B
:1019F0000FD002F5806290420BD002F59A329042ED
:101A000007D002F58062904203D002F580629042D6
:101A100003D123F44073CA68134323F080034A6957
:101A2000134303608B68C3620B688362044B984264
:101A300002D00123436170470B690363F9E700BFDC
:101A400000000140A8B110B5044690F83D305BB1EC
:101A5000022384F83D30211D2068FFF7A5FF0123F4
:101A600084F83D30002010BD80F83C3001F082F950
:101A7000EEE701207047A8B110B5044690F83D305C
:101A80005BB1022384F83D30211D2068FFF78CFFF5
:101A9000012384F83D30002010BD80F83C30FFF772
:101AA000BFFEEEE70120704730B4036A23F0100355
:101AB0000362036A4468826922F4E6420D6842EADE
:101AC000052223F020038D6843EA05130E4DA8423A
:101AD00009D00D4DA8420ED0446082614A688263ED
:101AE000036230BC704723F08003CD6843EA0513DE
:101AF00023F04003EDE724F440644D6944EA850493
:101B00008D6944EA8504E7E70000014038B590F8A4
:101B10003C30012B66D00D460446012380F83C3052
:101B2000022380F83D300C2A1AD8DFE802F00719AA
:101B30001919201919193419191947000068FFF7E4
:101B400099FD2268936943F00803936122689369C1
:101B500023F0040393612268936929690B4393611D
:101B6000012384F83D30002084F83C0038BD006833
:101B7000FFF79AFF2268936943F400639361226838
:101B8000936923F48063936122689369296943EA26
:101B900001239361E4E70068FFF79AFD2268D369A7
:101BA00043F00803D3612268D36923F00403D361AF
:101BB0002268D36929690B43D361D1E70068FFF735
:101BC000B9FD2268D36943F40063D3612268D36905
:101BD00023F48063D3612268D369296943EA01232E
:101BE000D361BDE70220C1E710B4846824F47F44C8
:101BF00042EA03230B43234383605DF8044B7047A1
:101C000090F83C30012B66D010B50446012380F8D3
:101C10003C30022380F83D300268936823F47F4310
:101C200023F0770393600B68402B4AD013D9602BC5
:101C30003DD01ED9702B28D0B3F5005F30D1CB68D2
:101C40004A6889680068FFF7CFFF2268936843F409
:101C50008043936024E0102B06D004D9202B03D0BE
:101C6000302B01D01CE0DBB919462068FFF7ADFD31
:101C700016E0502B14D1CA6849680068FFF77EFD52
:101C800050212068FFF7A1FD0AE0CB684A68896807
:101C90000068FFF7A9FF2268936843F07703936019
:101CA000012384F83D30002084F83C0010BDCA6850
:101CB00049680068FFF775FD60212068FFF785FD22
:101CC000EEE7CA6849680068FFF758FD40212068C0
:101CD000FFF77BFDE4E70220704710B401F01F011D
:101CE000012303FA01F4036A23EA04030362036A8B
:101CF0008A40134303625DF8044B704710B50446F5
:101D000001220068FFF7E9FF23680A4A93420BD0DB
:101D10002268936803F00703062B03D0136843F08F
:101D200001031360002010BD5A6C42F400425A6453
:101D3000EEE700BF0000014090F83C30012B33D0AB
:101D400030B4012380F83C30022380F83D30036832
:101D50005C689D6824F070040A6822435A60036836
:101D6000124A934212D0B3F1804F0FD0A2F57C42B9
:101D700093420BD002F58062934207D002F5806255
:101D8000934203D002F59A32934204D125F08005A4
:101D90004A6815439D60012380F83D30002380F898
:101DA0003C30184630BC70470220704700000140AC
:101DB000704770470268D36823F0C003D3602023C4
:101DC00080F8393070470268D36823F49073D36089
:101DD0000268536923F001035361202380F83A30ED
:101DE000704790F83930DBB2212B2AD18368B3F5E4
:101DF000805F16D0036A5A1C02621A7803685A6020
:101E0000C38C013B9BB2C384EBB90268D36823F057
:101E10008003D3600268D36843F04003D36000209E
:101E20007047036A1B880268C3F3080353600369A1
:101E30001BB9036A02330362E2E7036A01330362F8
:101E4000DEE7022070470020704700002DE9F04BCC
:101E500004460268136923F44053C1680B431361BD
:101E600083680269134342691343C2691A430168D4
:101E7000CB6823F4164323F00C031343CB600268B2
:101E8000536923F4407381690B435361C369B3F50C
:101E9000004F3BD00368714A934200F0AB8002F5DB
:101EA0008062934200F0A680FFF73AFA4FF00009F3
:101EB000061849EB090716EB000B47EB090C4FEA34
:101EC000CC0343EA5B734FEACB0293469C466368BC
:101ED0009A009B0F10EB0B0049EB0C01FEF780F909
:101EE0005F4DA5FB00325109642202FB1102130170
:101EF0003233A5FB03235B0903F0F00202EB01126E
:101F000003F00F03216813448B60A4E00368534A75
:101F1000934239D002F58062934235D0FFF700FA40
:101F200083464FF0000C06184CEB0C0716EB00082C
:101F300047EB0C094FEAC90343EA58734FEAC8025A
:101F40009046994662680021921841EB01031BEB11
:101F500008004CEB0901FEF743F9414DA5FB0032A7
:101F60005109642202FB1102D3003233A5FB032383
:101F70005B095A0002F4F87202EB011203F0070346
:101F8000216813448B6066E0FFF7DAF980464FF072
:101F90000009061849EB090716EB000B47EB090C83
:101FA0004FEACC0343EA5B734FEACB0293469C466D
:101FB00062680021921841EB010318EB0B0049EB1A
:101FC0000C01FEF70DF9264DA5FB003251096422E4
:101FD00002FB1102D3003233A5FB03235B095A0035
:101FE00002F4F87202EB011203F0070321681344B4
:101FF0008B6030E0FFF7A4F94FF00009061849EBB9
:10200000090716EB000B47EB090C4FEACC0343EA38
:102010005B734FEACB0293469C4663689A009B0F22
:1020200010EB0B0049EB0C01FEF7DAF80C4DA5FBA9
:1020300000325109642202FB110213013233A5FB65
:1020400003235B0903F0F00202EB011203F00F031C
:10205000216813448B60BDE8F08B00BF0010014085
:102060001F85EB512DE9F04105460F46164698466F
:10207000069C2B681B6837EA03030CBF012300236F
:10208000B3421DD1B4F1FF3FF3D02CB1FEF7CAFA31
:10209000A0EB0800A042ECD92A68D36823F4D073DF
:1020A000D3602A68536923F001035361202385F824
:1020B000393085F83A30002385F83830032000E0C5
:1020C0000020BDE8F08158B310B5044690F83930CF
:1020D0000BB3242384F839302268D36823F40053E7
:1020E000D3602046FFF7B2FE2268136923F49043C1
:1020F00013612268536923F02A0353612268D3686D
:1021000043F40053D3600020E063202384F8393087
:1021100084F83A3010BD80F8383000F0A1FED8E7DE
:10212000012070472DE9F04383B01E4690F8393006
:10213000DBB2202B56D104460D469046002956D0DE
:10214000002A56D090F83830012B54D0012380F863
:1021500038304FF00009C0F83C90212380F8393026
:10216000FEF760FA0746A4F82480A4F8268084F8D5
:10217000389010E000963B46002280212046FFF771
:1021800071FF002839D12B882268C3F308035360FC
:102190002369C3B90235E38C9BB2B3B1E38C013B35
:1021A0009BB2E384A368B3F5805FE3D000963B461F
:1021B000002280212046FFF755FF00BB2A782368C4
:1021C0005A600135E7E70135E5E700963B46002216
:1021D00040212046FFF746FF034690B9202284F8AD
:1021E000392000E00223184603B0BDE8F083012344
:1021F000F9E70123F7E70223F5E70323F3E70323D6
:10220000F1E70323EFE7000030B583B090F83A40E0
:10221000E4B2202C3DD100293ED0002A3ED090F8D7
:102220003830012B3CD013460A460446012180F881
:102230003810826283850025C563222180F83A1018
:10224000416B1848C863616B17480864616B174895
:10225000C864616B0D6521680431606BFEF748FB53
:10226000019523681A6801925A680192019A84F8CC
:102270003850DA6842F48072DA602268536943F0B9
:10228000010353612268536943F0400353612846B8
:1022900000E0022003B030BD0120FBE70120F9E798
:1022A0000220F7E7CF220008AB230008B72300087D
:1022B000704708B50168CB6823F04003CB6020234A
:1022C00080F83930FFF7F4FF002008BD704708B5EB
:1022D000836B0268126812F4807F13D10022DA85C2
:1022E0001968CA6822F48072CA6019684A6922F0C3
:1022F00001024A6119684A6922F040024A612022BB
:1023000083F83A201846FFF7E1FF08BD08B590F8BA
:102310003A30DBB2222B45D18368B3F5805F0ED013
:10232000036903BB03685A68836A591C81621A7087
:10233000C38D013B9BB2C385F3B1002033E0826AB9
:10234000036943B903685B68C3F308031380836AB6
:1023500002338362ECE703685B68DBB21380836A55
:1023600001338362E4E703685B68826A511C81621F
:1023700003F07F031370DBE70268D36823F02003C8
:10238000D3600268D36823F48073D3600268536912
:1023900023F001035361202380F83A30FFF796FFC2
:1023A000002000E0022008BD704708B5806BFFF7F1
:1023B000FBFF08BD704710B5846B23685A6994F819
:1023C0003930DBB2212B10D023685A6902F0400269
:1023D00094F83A30DBB2222B11D0E36B43F01003B8
:1023E000E3632046FFF7E6FF10BD02F08002002AFB
:1023F000EAD00023E3842046FFF7DCFCE4E7002A70
:10240000EBD00023E3852046FFF7DDFCE5E7000085
:1024100010B5044602681368D168526913F00F00C2
:1024200005D113F0200F02D011F0200F56D1002853
:102430006AD012F0010202D111F4907F64D013F03F
:10244000010F06D011F4807F03D0E06B40F0010053
:10245000E06313F0040F04D01AB1E06B40F0020007
:10246000E06313F0020F04D01AB1E06B40F00400F7
:10247000E06313F0080F07D011F0200F00D11AB15C
:10248000E26B42F00802E263E26B002A48D013F0EC
:10249000200F02D011F0200F24D123685B6903F0D4
:1024A0004003E26B12F0080F00D13BB32046FFF768
:1024B0008AFC23685A6912F0400F1BD05A6922F037
:1024C00040025A61636B8BB11A4A1A65606BFEF762
:1024D00044FA28B3606B036D984721E02046FFF76C
:1024E00015FF1DE02046FFF711FFD6E72046FFF756
:1024F00061FF15E02046FFF75DFF11E02046FFF782
:1025000059FF0023E3630BE013F0800F02D011F0BA
:10251000800F06D113F0400F02D011F0400F04D10C
:1025200010BD2046FFF75DFCFAE72046FFF7C1FE2D
:10253000F6E700BF3925000808B5806B0023C38586
:10254000C384FFF737FF08BD70B50646002410E0CE
:10255000002202210E48FEF7D3FB0D4D002204217C
:102560002846FEF7CDFB012204212846FEF7C8FBD2
:102570000134072C0ADC06FA04F313F0800FE7D0CD
:10258000012202210248FEF7BBFBE6E770BD00BF57
:102590000004024038B504460E4D01224FF480611C
:1025A0002846FEF7ADFBF820FFF7CEFF04F0F00061
:1025B000FFF7CAFF200100F0F000FFF7C5FF32204F
:1025C00000F096F800224FF480612846FEF798FB51
:1025D00038BD00BF0004024038B504460E4D01224C
:1025E0004FF480612846FEF78BFBFA20FFF7ACFF23
:1025F00004F0F000FFF7A8FF200100F0F000FFF763
:10260000A3FF322000F074F800224FF480612846C6
:10261000FEF776FB38BD00BF0004024010B514463B
:10262000032812D8DFE800F002080B0E41F080000A
:10263000C0B2FFF7AFFF0EE041F09000F8E741F0C5
:102640008800F5E741F09800F2E741F08000EFE7FD
:102650000134FFF7C1FF20780028F9D110BD000038
:1026600010B51E4C002201212046FEF749FB0A202E
:10267000FDF7DEFF012211462046FEF741FB322026
:10268000FDF7D6FF3020FFF785FF6E2000F030F811
:102690003020FFF77FFF282000F02AF80820FFF7FE
:1026A00079FF6E2000F024F80120FFF773FF0C2063
:1026B000FDF7BEFF0620FFF76DFF0120FDF7B8FF15
:1026C0000C20FFF767FF0120FDF7B2FF0220FFF7A4
:1026D00061FF0120FDF7ACFF10BD00BF0004024008
:1026E00008B50248FFF779F808BD00BF28020020AE
:1026F000034B1A6800235362536A8342FCD370472A
:1027000028020020F0B58BB00024059406940794AD
:10271000089409940194264B1A6B42F004021A6340
:102720001A6B02F004020192019A02941A6B42F0B1
:1027300080021A631A6B02F080020292029A0394DA
:102740001A6B42F001021A631A6B02F00102039243
:10275000039A04941A6B42F002021A631B6B03F093
:1027600002030493049B134F22464FF40051384652
:10277000FEF7C6FA104D224640F207412846FEF702
:10278000BFFA4FF400530593012606960794089468
:1027900005A93846FEF7E2F940F20743059306968D
:1027A0000794089405A92846FEF7D8F90BB0F0BDA8
:1027B00000380240000802400004024010B582B018
:1027C00000240094124B1A6B42F480021A631A6BB5
:1027D00002F480020092009A01941A6B42F40012F3
:1027E0001A631B6B03F400130193019B22462146DD
:1027F0001020FDF743FF1020FDF774FF224621460D
:102800003A20FDF73BFF3A20FDF76CFF02B010BD08
:102810000038024008B50848084B03604FF41653CF
:10282000436000238360C36003610C2242618361C3
:10283000C361FFF748FC08BDA8010020001001405B
:1028400008B50848084B03604FF416534360002353
:102850008360C36003610C2242618361C361FFF73F
:1028600032FC08BD400300200044004008B5084881
:10287000084B03604FF4E133436000238360C3607F
:1028800003610C2242618361C361FFF71CFC08BD38
:10289000680200200014014030B587B00024029483
:1028A000039404940594009401940F4D0F4B2B60F6
:1028B0004AF20F436B60AC604FF47A73EB602C61AB
:1028C000AC612846FFF7BEF84FF48053029302A98B
:1028D0002846FFF795F90094019469462846FFF7CA
:1028E0002BFA07B030BD00BF0801002000040040F3
:1028F00030B587B0002402940394049405940094A6
:1029000001940F4D0F4B2B6053236B60AC604FF65F
:10291000FE73EB602C616C61AC612846FFF792F8A6
:102920004FF48053029302A92846FFF769F90094F7
:10293000019469462846FFF7FFF907B030BD00BF94
:10294000280200200000014030B58FB000240A9416
:102950000B940C940D94089409940194029403949C
:1029600004940594069407941A4D4FF080432B600D
:102970004FF4D2636B60AC604FF47A73EB602C6100
:10298000AC612846FFF75EF84FF480530A930AA91A
:102990002846FFF735F92846FFF76DF808940994A3
:1029A00008A92846FFF7C8F960230193029403940D
:1029B0000594224601A92846FFF7A8F804220DEB4A
:1029C00002012846FFF7A2F8284600F01FFA0FB0D0
:1029D00030BD00BF0003002008B50948094B036063
:1029E000002343608360C3600361436183610362CA
:1029F000436283620A23C362FEF72EFD08BD00BF57
:102A0000A80200200030014010B5094C4FF40051DD
:102A10002046FEF77BF9C820FDF70AFE4FF400516F
:102A20002046FEF773F96420FDF702FE002010BD7A
:102A30000008024030B595B03022002108A800F00F
:102A400095FB002403940494059406940794019440
:102A50001C4B1A6C42F080521A641B6C03F08053BA
:102A60000193019B0294184A136823F4404343F4F2
:102A700000431360136803F440430293029B012355
:102A800008934FF48033099302250E954FF4800389
:102A90000F9319231093A8231193129504231393D2
:102AA00008A8FEF73DF90F230393049505944FF40E
:102AB000805306930794294603A8FEF77BFB15B0C5
:102AC00030BD00BF0038024000700040F0B583B058
:102AD000FDF782FDFFF7AEFFFFF714FEFFF76EFE76
:102AE000FFF798FEFFF7ACFEFFF7C0FEFFF72CFFE5
:102AF000FFF772FFFFF7D0FEFFF7FAFE6248FEF71E
:102B00007EFE624C00212046FFF7F8F804212046A3
:102B1000FFF7F4F85E4C04225E492046FFF774FB91
:102B200004225D492046FFF76FFB002403E0FFF716
:102B30006BFF0134E4B2022CF9D94FF47A70FDF73F
:102B400077FDFFF7CDFDFFF78BFD544A00210846C6
:102B5000FFF764FD524A00210120FFF75FFD514A53
:102B600000210220FFF75AFD4F4A00210320FFF702
:102B700055FD0025192438E031467678887800EB39
:102B8000062292B233440344DBB2C9788B423ED072
:102B900042F210723BE018465F789E7806EB0723FE
:102BA0009BB239443144C9B2C078814234D042F238
:102BB000107331E0374A0021D1540133DBB2032BCB
:102BC000F8D9002304E0344A0021D1540133DBB2A8
:102BD000032BF8D9631CDBB22C4A1268546302340D
:102BE000E4B293637D2C00D919246420FDF720FD05
:102BF000284E042231462648FFF706FB04222649C8
:102C00002A48FFF701FB3378FF2BB5D00022224B77
:102C10001978FF29BFD00023254E2649304600F001
:102C2000ADFA3046FDF75CFC234F6FF07F4382B274
:102C300031463846FFF776FA6FF07F4302221F498C
:102C40003846FFF76FFA324600210846FFF7E6FCE8
:102C50002A461B49304600F091FA324600210120F5
:102C6000FFF7DCFC013506238DF8003007238DF8D3
:102C7000013002238DF802300A23032269461148ED
:102C8000FEF72AFC00239AE7080100200003002039
:102C9000A80100200001002004010020C039000824
:102CA000C8390008D0390008D8390008400300208E
:102CB000E8010020EC39000868020020F43900081F
:102CC000F8390008A80200207047000082B00021F7
:102CD00000910B4B5A6C42F480425A645A6C02F4D5
:102CE00080420092009A01911A6C42F080521A645C
:102CF0001B6C03F080530193019B02B0704700BF2F
:102D00000038024000B589B0002303930493059373
:102D1000069307930268154B9A4202D009B05DF8FA
:102D200004FB0021019103F584335A6C42F4805274
:102D30005A645A6C02F480520192019A02911A6B01
:102D400042F001021A631B6B03F001030293029B22
:102D5000F02303930223049303230693052307938D
:102D600003A90348FDF7FAFED8E700BF0030014091
:102D70000000024000B585B00368214A934208D0A4
:102D8000B3F1804F12D01F4A934224D005B05DF8B2
:102D900004FB002301931C4B5A6C42F001025A645D
:102DA0005B6C03F001030193019BEFE700210291AB
:102DB00003F50E331A6C42F001021A641B6C03F027
:102DC00001030293029B0A461C20FDF757FC1C20BE
:102DD000FDF788FCDAE7002103910B4B1A6C42F0F7
:102DE00002021A641B6C03F002030393039B0A465E
:102DF0001D20FDF743FC1D20FDF774FCC6E700BF56
:102E000000000140000400400038024000B587B0D7
:102E10000023019302930393049305930368B3F192
:102E2000804F02D007B05DF804FB002300930A4BEB
:102E30001A6B42F001021A631B6B03F0010300934B
:102E4000009B03230193022302930123059301A90D
:102E50000248FDF783FEE5E700380240000002402B
:102E600030B58DB0044600230793089309930A9365
:102E70000B930368574A934207D0574A934241D075
:102E8000564A93427AD00DB030BD00250195544B7F
:102E90005A6C42F010025A645A6C02F0100201920D
:102EA000019A02951A6B42F001021A631B6B03F040
:102EB00001030293029B4FF4C0630793022308931C
:102EC00003230A9307230B9307A94648FDF746FE01
:102ED0004548464B03604FF0006343608560C56022
:102EE0004FF48063036145618561C5610562456298
:102EF000FDF798FC18B93C4B63639C63C3E7FFF78D
:102F0000E3FEF8E700250395354B1A6C42F40032D6
:102F10001A641A6C02F400320392039A04951A6B35
:102F200042F001021A631B6B03F001030493049B3C
:102F30000C2307930223089303230A9307230B937D
:102F400007A92848FDF70AFE29482A4B03604FF0DD
:102F5000006343608560C5604FF480630361456131
:102F60008561C56105624562FDF75CFC18B9204BBF
:102F700063639C6387E7FFF7A7FEF8E700240594E7
:102F8000174B5A6C42F020025A645A6C02F020022D
:102F90000592059A06941A6B42F001021A631B6BA4
:102FA00003F001030693069B4FF4C05307930223DB
:102FB000089303230A9308230B9307A90948FDF7F5
:102FC000CDFD224621464720FDF758FB4720FDF75F
:102FD00089FB58E700100140004400400014014004
:102FE00000380240000002404801002040640240D6
:102FF000A0000020886002407047FEE7FEE7FEE781
:10300000FEE770477047704708B5FDF7FFFA08BD47
:1030100008B50248FDF7B4FC08BD00BFA0000020C1
:1030200008B50248FEF702FC08BD00BF00030020FF
:1030300008B50448FEF7FAFB4FF400510248FDF7CB
:1030400065FE08BD080100200008024008B50248DE
:10305000FDF796FC08BD00BF4801002008B50248F6
:10306000FFF7D6F908BD00BF6802002008B5034687
:103070000B4A126842B10A4A106803446A469342F6
:1030800006D8074A136008BD054A06491160F2E7F1
:1030900000F042F80C2303604FF0FF30F3E700BF6D
:1030A0008C00002088030020054BD3F8882042F4D0
:1030B0007002C3F888204FF000629A60704700BF2A
:1030C00000ED00E0DFF834D0002103E00C4B5B584A
:1030D000435004310B480C4B42189A42F6D30B4A2A
:1030E00002E0002342F8043B094B9A42F9D3FFF770
:1030F000DBFF00F017F8FFF7E9FC70470000012044
:10310000403A0008000000207000002070000020FD
:1031100084030020FEE70000014B1868704700BFE1
:103120000C00002070B50D4E0D4CA41BA410002502
:10313000A54209D10B4E0C4C00F026FCA41BA41098
:103140000025A54205D170BD56F8253098470135B8
:10315000EEE756F8253098470135F2E7383A00088F
:10316000383A0008383A00083C3A0008024403465E
:10317000934200D1704703F8011BF9E70EB400B584
:103180009CB01DAB029006906FF00041094807917A
:103190000491094953F8042B05910068019302A991
:1031A00000F066F8029B00221A701CB05DF804EB78
:1031B00003B070470C0000200802FFFF2DE9F04724
:1031C0008E689E4282460C469046994637D88A8938
:1031D00012F4906F31D0256809696F1A656902236E
:1031E00005EB450595FBF3F509F101033B449D42D1
:1031F00038BF1D46530530D5294600F02BFB064647
:1032000050B90C23CAF80030A38943F04003A381CE
:103210004FF0FF30BDE8F0873A46216900F0A8FA88
:10322000A38923F4906343F08003A3812661656141
:103230003E44ED1B2660A5604E464E4500D94E46E5
:1032400032464146206800F09EFAA3689B1BA360AB
:1032500023681E4426600020DCE72A4600F054FB69
:1032600006460028E2D12169504600F0A5FAC8E7D9
:103270002DE9F04F1D468B891F069DB080460C46F8
:1032800016460FD50B696BB9402100F0E3FA2060B8
:10329000206128B90C23C8F800304FF0FF30C8E097
:1032A000402363610023099320238DF829303023C4
:1032B0008DF82A3003954FF0010B37463D4615F83F
:1032C000013B0BB1252B3ED1B7EB060A0BD0534681
:1032D000324621464046FFF771FF013000F0A480DE
:1032E000099B534409933B78002B00F09D800023F9
:1032F0004FF0FF32CDE90523049307938DF8533047
:103300001A932F46052217F8011B5048FDF7F0F8D5
:10331000049BD0B9D90644BF20228DF853201A0748
:1033200044BF2B228DF853202A782A2A15D0079AD9
:103330002F4600200A25394611F8013B303B092B66
:103340004DD9B8B10FE02F46B8E7404A801A0BFAC2
:1033500000F0184304903D46D3E7039A111D12680C
:103360000391002A01DB079204E0524243F002037A
:10337000079204933B782E2B0CD17B782A2B33D1E8
:10338000039B1A1D1B680392002BB8BF4FF0FF333D
:10339000023705932E4D397803222846FDF7A8F809
:1033A00038B14023401B03FA00F0049B034301376C
:1033B0000493397827488DF8281006227E1CFDF7E3
:1033C00097F8002838D0244B13BB039B073323F016
:1033D000070308330393099B4B4409936DE705FBEF
:1033E000023201200F46A6E7002301370593194654
:1033F0000A25384610F8012B303A092A03D9002B48
:10340000C8D00591C6E705FB012101230746F0E777
:1034100003AB00932246114B04A94046AFF3008052
:10342000B0F1FF3F8146D6D1A3895B063FF535AFAA
:1034300009981DB0BDE8F08F03AB00932246074BFF
:1034400004A9404600F082F8EAE700BFFC39000812
:10345000023A0008063A000800000000BD310008EA
:103460002DE9F04791461F468A680B69DDF82080F8
:103470009342B8BF1346C9F8003091F8432006467E
:103480000C4612B10133C9F800302368990642BFD7
:10349000D9F800300233C9F80030256815F0060568
:1034A00007D104F1190AE368D9F800209B1AAB424E
:1034B00028DC94F843302268003318BF01239206B9
:1034C0002DD404F1430239463046C047013020D0A4
:1034D0002368E568D9F8002003F00603042B08BF31
:1034E000AD1AA36822690CBF25EAE5750025934251
:1034F000C4BF9B1AED184FF000091A344D451AD17C
:10350000002008E00123524639463046C0470130CA
:1035100003D14FF0FF30BDE8F0870135C3E7E11874
:103520005A1C302081F84300224494F8451082F858
:1035300043100233C5E70123224639463046C047CF
:103540000130E6D009F10109D8E700002DE9F04388
:1035500001F1430C0C46097E85B06E2917460646DC
:1035600098460C9A00F0B38022D8632936D00AD846
:10357000002900F0B980582900F0838004F1420549
:1035800084F8421032E0642901D06929F6D120681C
:103590001368050603F104012AD51B681160002B8E
:1035A00003DA2D225B4284F843206F480A2239E077
:1035B000732900F09D8008D86F2920D07029DDD1B3
:1035C000236843F02003236003E0752917D078298E
:1035D000D4D1782384F84530644855E01368191D28
:1035E0001B68116004F1420584F8423001238CE02D
:1035F0001B68116010F0400F18BF1BB2CFE71368B3
:103600002568181D1060280601D51B6802E06806B1
:10361000FBD51B8854486F2914BF0A2208220021B9
:1036200084F843106568A560002DC0F2958021687C
:1036300021F004012160002B3DD1002D40F08E804F
:103640006546082A0BD12368DB0708D52369626821
:103650009A42DEBF302305F8013C05F1FF35ACEBA3
:1036600005032361CDF800803B4603AA214630467E
:10367000FFF7F6FE01304DD14FF0FF3005B0BDE849
:10368000F083394884F84510136821681D1D1B68B4
:1036900015600A060BD5CA0744BF41F0200121601E
:1036A0001BB9226822F0200222601022B7E74D06E3
:1036B00048BF9BB2EFE76546B3FBF2F102FB113363
:1036C000C35C05F8013D0B460029F5D1B9E7136845
:1036D00025686169181D106028061B6801D51960EE
:1036E00002E06A06FBD51980002323616546B9E72D
:1036F0001368191D11601D68626800212846FCF7D7
:10370000F7FE08B1401B606063682361002384F802
:103710004330A7E723692A4639463046C04701307F
:10372000AAD023689B0713D4E068039B9842B8BFD4
:103730001846A3E701234A4639463046C0470130C0
:103740009AD00135E368039A9B1AAB42F2DCEBE7AF
:10375000002504F11909F5E7002BACD1037884F8B2
:10376000423004F142056CE70D3A00081E3A0008A9
:1037700010B5431E0A44914200D110BD11F8014B0F
:1037800003F8014FF7E7884210B501EB020307D8B1
:10379000421E99420AD011F8014B02F8014FF8E796
:1037A0008342F5D98118D21AD34200D110BD13F843
:1037B000014D01F8014DF7E738B50546002945D020
:1037C00051F8043C0C1F002BB8BFE41800F0D2F8ED
:1037D0001F4A1368104633B9636014602846BDE879
:1037E000384000F0C8B8A3420CD92168621893424F
:1037F00004BF1A685B68636004BF521822600460EB
:10380000ECE713465A680AB1A242FAD91968581867
:10381000A0420BD120680144581882421960DDD1C2
:10382000106852685A6001441960D7E702D90C2326
:103830002B60D3E7206821188A4204BF11685268C0
:10384000626004BF091821605C60C7E738BD00BF33
:103850009400002070B5CD1C25F0030508350C2D13
:1038600038BF0C25002D064601DBA94203D90C23E5
:103870003360002070BD00F07DF8214A14682146B5
:1038800091B9204C23681BB9304600F063F82060E2
:103890002946304600F05EF8431C24D10C233360E7
:1038A000304600F068F8E4E70B685B1B18D40B2B7C
:1038B0000FD90B60CD50CC18304600F05CF804F105
:1038C0000B00231D20F00700C31AD3D05A42E25048
:1038D000D0E78C424B6816BF636013600C46EBE781
:1038E0000C464968CCE7C41C24F00304A04205D070
:1038F000211A304600F02EF80130CFD02560DBE7EA
:103900009400002098000020F8B5074614460E46A3
:1039100021B91146BDE8F840FFF79CBF22B9FFF777
:103920004BFF25462846F8BD00F026F8A0420FD2EE
:1039300021463846FFF78EFF05460028F2D0314673
:103940002246FFF715FF31463846FFF735FFE9E716
:103950003546E7E738B5064C0023054608462360A0
:10396000FFF784FB431C02D1236803B12B6038BDF1
:10397000800300207047704751F8043C181F002B4B
:10398000BCBF0B58C0187047F8B500BFF8BC08BCE6
:103990009E467047F8B500BFF8BC08BC9E4670470D
:1039A00000061016000610160000000000000000BF
:1039B00001020304060708090000000001020304D5
:1039C0004C696E65203100004C696E652032000044
:1039D0004C696E6520330000313233343536373868
:1039E000393021402324255E000000002535752054
:1039F000253575000A0D000025387500232D302B64
:103A00002000686C4C0065666745464700303132DF
:103A10003334353637383941424344454600303136
:103A20003233343536373839616263646566000095
:083A3000E0C7FF7F0100000068
:043A3800C5010008BC
:043A3C00A1010008DC
:103A400001000000100000000024F400100000201D
:103A50000000000000000000000000000000000066
:103A60000000000000000000000000000000000056
:103A70000000000000000000000000000000000046
:103A80000000000000000000000000000000000036
:103A90000000000000000000000000000000000026
:103AA0000000000000000000000000000000000016
:04000005080030C5FA
:00000001FF
